{
  "contractName": "StakEth",
  "abi": [
    {
      "inputs": [
        {
          "internalType": "contract Token",
          "name": "_token",
          "type": "address"
        }
      ],
      "payable": false,
      "stateMutability": "nonpayable",
      "type": "constructor"
    },
    {
      "anonymous": false,
      "inputs": [
        {
          "indexed": false,
          "internalType": "address payable",
          "name": "staker",
          "type": "address"
        },
        {
          "indexed": false,
          "internalType": "address payable",
          "name": "partner",
          "type": "address"
        },
        {
          "indexed": false,
          "internalType": "int256",
          "name": "partner_happy",
          "type": "int256"
        },
        {
          "indexed": false,
          "internalType": "string",
          "name": "resolution_clause",
          "type": "string"
        },
        {
          "indexed": false,
          "internalType": "uint256",
          "name": "amount_staked",
          "type": "uint256"
        }
      ],
      "name": "TokensResolved",
      "type": "event"
    },
    {
      "anonymous": false,
      "inputs": [
        {
          "indexed": false,
          "internalType": "address payable",
          "name": "staker",
          "type": "address"
        },
        {
          "indexed": false,
          "internalType": "address payable",
          "name": "partner",
          "type": "address"
        },
        {
          "indexed": false,
          "internalType": "int256",
          "name": "partner_happy",
          "type": "int256"
        },
        {
          "indexed": false,
          "internalType": "string",
          "name": "resolution_clause",
          "type": "string"
        },
        {
          "indexed": false,
          "internalType": "uint256",
          "name": "amount_staked",
          "type": "uint256"
        }
      ],
      "name": "TokensStaked",
      "type": "event"
    },
    {
      "constant": true,
      "inputs": [
        {
          "internalType": "address",
          "name": "",
          "type": "address"
        },
        {
          "internalType": "address",
          "name": "",
          "type": "address"
        }
      ],
      "name": "address_to_partner",
      "outputs": [
        {
          "internalType": "uint256",
          "name": "",
          "type": "uint256"
        }
      ],
      "payable": false,
      "stateMutability": "view",
      "type": "function"
    },
    {
      "constant": true,
      "inputs": [
        {
          "internalType": "address",
          "name": "",
          "type": "address"
        },
        {
          "internalType": "address",
          "name": "",
          "type": "address"
        }
      ],
      "name": "address_to_staking",
      "outputs": [
        {
          "internalType": "uint256",
          "name": "",
          "type": "uint256"
        }
      ],
      "payable": false,
      "stateMutability": "view",
      "type": "function"
    },
    {
      "constant": true,
      "inputs": [],
      "name": "contracts_count",
      "outputs": [
        {
          "internalType": "uint256",
          "name": "",
          "type": "uint256"
        }
      ],
      "payable": false,
      "stateMutability": "view",
      "type": "function"
    },
    {
      "constant": true,
      "inputs": [],
      "name": "name",
      "outputs": [
        {
          "internalType": "string",
          "name": "",
          "type": "string"
        }
      ],
      "payable": false,
      "stateMutability": "view",
      "type": "function"
    },
    {
      "constant": true,
      "inputs": [],
      "name": "rate",
      "outputs": [
        {
          "internalType": "uint256",
          "name": "",
          "type": "uint256"
        }
      ],
      "payable": false,
      "stateMutability": "view",
      "type": "function"
    },
    {
      "constant": true,
      "inputs": [
        {
          "internalType": "uint256",
          "name": "",
          "type": "uint256"
        }
      ],
      "name": "staking_contracts",
      "outputs": [
        {
          "internalType": "address payable",
          "name": "staker",
          "type": "address"
        },
        {
          "internalType": "address payable",
          "name": "partner",
          "type": "address"
        },
        {
          "internalType": "uint256",
          "name": "partner_happy",
          "type": "uint256"
        },
        {
          "internalType": "string",
          "name": "resolution_clause",
          "type": "string"
        },
        {
          "internalType": "uint256",
          "name": "amount_staked",
          "type": "uint256"
        }
      ],
      "payable": false,
      "stateMutability": "view",
      "type": "function"
    },
    {
      "constant": true,
      "inputs": [],
      "name": "token",
      "outputs": [
        {
          "internalType": "contract Token",
          "name": "",
          "type": "address"
        }
      ],
      "payable": false,
      "stateMutability": "view",
      "type": "function"
    },
    {
      "constant": false,
      "inputs": [
        {
          "internalType": "address payable",
          "name": "_partner_address",
          "type": "address"
        },
        {
          "internalType": "string",
          "name": "_resolution_clause",
          "type": "string"
        }
      ],
      "name": "StakeTokens",
      "outputs": [],
      "payable": true,
      "stateMutability": "payable",
      "type": "function"
    },
    {
      "constant": false,
      "inputs": [
        {
          "internalType": "int256",
          "name": "partner_happy",
          "type": "int256"
        },
        {
          "internalType": "address payable",
          "name": "staker_address",
          "type": "address"
        }
      ],
      "name": "Partner_Decision",
      "outputs": [],
      "payable": false,
      "stateMutability": "nonpayable",
      "type": "function"
    }
  ],
  "bytecode": "0x60806040526040518060400160405280600781526020017f5374616b457468000000000000000000000000000000000000000000000000008152506000908051906020019061004f9291906100e3565b506000600155606460035534801561006657600080fd5b506040516200115b3803806200115b8339818101604052602081101561008b57600080fd5b810190808051906020019092919050505080600260006101000a81548173ffffffffffffffffffffffffffffffffffffffff021916908373ffffffffffffffffffffffffffffffffffffffff16021790555050610188565b828054600181600116156101000203166002900490600052602060002090601f016020900481019282601f1061012457805160ff1916838001178555610152565b82800160010185558215610152579182015b82811115610151578251825591602001919060010190610136565b5b50905061015f9190610163565b5090565b61018591905b80821115610181576000816000905550600101610169565b5090565b90565b610fc380620001986000396000f3fe6080604052600436106100865760003560e01c8063bdfc526211610059578063bdfc5262146101f6578063d2f0d694146102d1578063d9e0fcda14610356578063f3a197ea1461047e578063fc0c546a146104d957610086565b806306fdde031461008b57806310f60de51461011b57806328dc4e97146101465780632c4e722e146101cb575b600080fd5b34801561009757600080fd5b506100a0610530565b6040518080602001828103825283818151815260200191508051906020019080838360005b838110156100e05780820151818401526020810190506100c5565b50505050905090810190601f16801561010d5780820380516001836020036101000a031916815260200191505b509250505060405180910390f35b34801561012757600080fd5b506101306105ce565b6040518082815260200191505060405180910390f35b34801561015257600080fd5b506101b56004803603604081101561016957600080fd5b81019080803573ffffffffffffffffffffffffffffffffffffffff169060200190929190803573ffffffffffffffffffffffffffffffffffffffff1690602001909291905050506105d4565b6040518082815260200191505060405180910390f35b3480156101d757600080fd5b506101e06105f9565b6040518082815260200191505060405180910390f35b6102cf6004803603604081101561020c57600080fd5b81019080803573ffffffffffffffffffffffffffffffffffffffff1690602001909291908035906020019064010000000081111561024957600080fd5b82018360208201111561025b57600080fd5b8035906020019184600183028401116401000000008311171561027d57600080fd5b91908080601f016020809104026020016040519081016040528093929190818152602001838380828437600081840152601f19601f8201169050808301925050505050505091929192905050506105ff565b005b3480156102dd57600080fd5b50610340600480360360408110156102f457600080fd5b81019080803573ffffffffffffffffffffffffffffffffffffffff169060200190929190803573ffffffffffffffffffffffffffffffffffffffff16906020019092919050505061095b565b6040518082815260200191505060405180910390f35b34801561036257600080fd5b5061038f6004803603602081101561037957600080fd5b8101908080359060200190929190505050610980565b604051808673ffffffffffffffffffffffffffffffffffffffff1673ffffffffffffffffffffffffffffffffffffffff1681526020018573ffffffffffffffffffffffffffffffffffffffff1673ffffffffffffffffffffffffffffffffffffffff16815260200184815260200180602001838152602001828103825284818151815260200191508051906020019080838360005b8381101561043f578082015181840152602081019050610424565b50505050905090810190601f16801561046c5780820380516001836020036101000a031916815260200191505b50965050505050505060405180910390f35b34801561048a57600080fd5b506104d7600480360360408110156104a157600080fd5b8101908080359060200190929190803573ffffffffffffffffffffffffffffffffffffffff169060200190929190505050610a8e565b005b3480156104e557600080fd5b506104ee610e68565b604051808273ffffffffffffffffffffffffffffffffffffffff1673ffffffffffffffffffffffffffffffffffffffff16815260200191505060405180910390f35b60008054600181600116156101000203166002900480601f0160208091040260200160405190810160405280929190818152602001828054600181600116156101000203166002900480156105c65780601f1061059b576101008083540402835291602001916105c6565b820191906000526020600020905b8154815290600101906020018083116105a957829003601f168201915b505050505081565b60015481565b6006602052816000526040600020602052806000526040600020600091509150505481565b60035481565b6001600081548092919060010191905055506040518060a001604052803373ffffffffffffffffffffffffffffffffffffffff1681526020018373ffffffffffffffffffffffffffffffffffffffff168152602001600081526020018281526020013481525060046000600154815260200190815260200160002060008201518160000160006101000a81548173ffffffffffffffffffffffffffffffffffffffff021916908373ffffffffffffffffffffffffffffffffffffffff16021790555060208201518160010160006101000a81548173ffffffffffffffffffffffffffffffffffffffff021916908373ffffffffffffffffffffffffffffffffffffffff16021790555060408201518160020155606082015181600301908051906020019061072e929190610e8e565b5060808201518160040155905050600154600560003373ffffffffffffffffffffffffffffffffffffffff1673ffffffffffffffffffffffffffffffffffffffff16815260200190815260200160002060008473ffffffffffffffffffffffffffffffffffffffff1673ffffffffffffffffffffffffffffffffffffffff16815260200190815260200160002081905550600154600660008473ffffffffffffffffffffffffffffffffffffffff1673ffffffffffffffffffffffffffffffffffffffff16815260200190815260200160002060003373ffffffffffffffffffffffffffffffffffffffff1673ffffffffffffffffffffffffffffffffffffffff168152602001908152602001600020819055507f4d5fb9a75ee27947f21ed6d11e684bbcc537fbcab41469e4b8ea3f52115f063c338360008434604051808673ffffffffffffffffffffffffffffffffffffffff1673ffffffffffffffffffffffffffffffffffffffff1681526020018573ffffffffffffffffffffffffffffffffffffffff1673ffffffffffffffffffffffffffffffffffffffff16815260200184815260200180602001838152602001828103825284818151815260200191508051906020019080838360005b838110156109195780820151818401526020810190506108fe565b50505050905090810190601f1680156109465780820380516001836020036101000a031916815260200191505b50965050505050505060405180910390a15050565b6005602052816000526040600020602052806000526040600020600091509150505481565b60046020528060005260406000206000915090508060000160009054906101000a900473ffffffffffffffffffffffffffffffffffffffff16908060010160009054906101000a900473ffffffffffffffffffffffffffffffffffffffff1690806002015490806003018054600181600116156101000203166002900480601f016020809104026020016040519081016040528092919081815260200182805460018160011615610100020316600290048015610a7e5780601f10610a5357610100808354040283529160200191610a7e565b820191906000526020600020905b815481529060010190602001808311610a6157829003601f168201915b5050505050908060040154905085565b610a96610f0e565b60046000600560008573ffffffffffffffffffffffffffffffffffffffff1673ffffffffffffffffffffffffffffffffffffffff16815260200190815260200160002060003373ffffffffffffffffffffffffffffffffffffffff1673ffffffffffffffffffffffffffffffffffffffff1681526020019081526020016000205481526020019081526020016000206040518060a00160405290816000820160009054906101000a900473ffffffffffffffffffffffffffffffffffffffff1673ffffffffffffffffffffffffffffffffffffffff1673ffffffffffffffffffffffffffffffffffffffff1681526020016001820160009054906101000a900473ffffffffffffffffffffffffffffffffffffffff1673ffffffffffffffffffffffffffffffffffffffff1673ffffffffffffffffffffffffffffffffffffffff16815260200160028201548152602001600382018054600181600116156101000203166002900480601f016020809104026020016040519081016040528092919081815260200182805460018160011615610100020316600290048015610c7f5780601f10610c5457610100808354040283529160200191610c7f565b820191906000526020600020905b815481529060010190602001808311610c6257829003601f168201915b5050505050815260200160048201548152505090506000831415610ca257600080fd5b6001831415610cfb578173ffffffffffffffffffffffffffffffffffffffff166108fc82608001519081150290604051600060405180830381858888f19350505050158015610cf5573d6000803e3d6000fd5b50610d47565b3373ffffffffffffffffffffffffffffffffffffffff166108fc82608001519081150290604051600060405180830381858888f19350505050158015610d45573d6000803e3d6000fd5b505b7f8263fa965089f9ec352400b880edf57ecd7bb060195c05915a952a6811a93f1882338584606001518560800151604051808673ffffffffffffffffffffffffffffffffffffffff1673ffffffffffffffffffffffffffffffffffffffff1681526020018573ffffffffffffffffffffffffffffffffffffffff1673ffffffffffffffffffffffffffffffffffffffff16815260200184815260200180602001838152602001828103825284818151815260200191508051906020019080838360005b83811015610e25578082015181840152602081019050610e0a565b50505050905090810190601f168015610e525780820380516001836020036101000a031916815260200191505b50965050505050505060405180910390a1505050565b600260009054906101000a900473ffffffffffffffffffffffffffffffffffffffff1681565b828054600181600116156101000203166002900490600052602060002090601f016020900481019282601f10610ecf57805160ff1916838001178555610efd565b82800160010185558215610efd579182015b82811115610efc578251825591602001919060010190610ee1565b5b509050610f0a9190610f69565b5090565b6040518060a00160405280600073ffffffffffffffffffffffffffffffffffffffff168152602001600073ffffffffffffffffffffffffffffffffffffffff1681526020016000815260200160608152602001600081525090565b610f8b91905b80821115610f87576000816000905550600101610f6f565b5090565b9056fea265627a7a723158206db9ea77aecbc8da49420724dfed5e257a774acab10f2197b22cafc6a9e3fdb464736f6c63430005100032",
  "source": "pragma solidity ^0.5.0;\r\n\r\nimport \"./Token.sol\";\r\n\r\ncontract StakEth {\r\n  string public name = \"StakEth\";\r\n  uint public contracts_count = 0;\r\n  Token public token;\r\n  uint public rate = 100;\r\n\r\n  struct Staking_contract{\r\n    address payable staker;\r\n    address payable partner;\r\n    uint partner_happy;\r\n    string resolution_clause;\r\n    uint amount_staked;\r\n  }\r\n\r\n  //key: an id, elem: a specific contract\r\n  mapping(uint => Staking_contract) public staking_contracts;\r\n  //key: an address, elem: all the contracts he is a staker in\r\n  mapping(address => mapping(address => uint)) public address_to_staking;  \r\n  //key: an address, elem: all the contracts he is a partner in\r\n  mapping(address => mapping(address => uint)) public address_to_partner;\r\n\r\n  event TokensStaked(\r\n    address payable staker,\r\n    address payable partner,\r\n    int partner_happy,\r\n    string resolution_clause,\r\n    uint amount_staked\r\n  );\r\n\r\n  event TokensResolved(\r\n    address payable staker,\r\n    address payable partner,\r\n    int partner_happy,     // use a three state boolean(-1: False, 0: don't know yet, 1: True)\r\n    string resolution_clause,\r\n    uint amount_staked\r\n  );\r\n\r\n  constructor(Token _token) public {\r\n    token = _token;\r\n  }\r\n\r\n  function StakeTokens(address payable _partner_address, string memory _resolution_clause) public payable {\r\n    //require(msg.value > 0);\r\n\r\n    contracts_count ++;\r\n\r\n    staking_contracts[contracts_count] = Staking_contract(msg.sender, _partner_address, 0, _resolution_clause, msg.value);\r\n\r\n    address_to_staking[msg.sender][_partner_address] = contracts_count;\r\n\r\n    address_to_partner[_partner_address][msg.sender] = contracts_count;\r\n\r\n    emit TokensStaked(msg.sender, _partner_address, 0, _resolution_clause, msg.value); // 0 means don't know yet\r\n  }\r\n\r\n\r\n  function Partner_Decision(int partner_happy, address payable staker_address) public {\r\n\r\n    Staking_contract memory staking_contract = staking_contracts[address_to_staking[staker_address][msg.sender]];\r\n\r\n    require(partner_happy != 0);\r\n\r\n    if(partner_happy == 1){\r\n      address(staker_address).transfer(staking_contract.amount_staked);\r\n    } else{\r\n      msg.sender.transfer(staking_contract.amount_staked);\r\n    }\r\n\r\n    emit TokensResolved(staker_address, msg.sender, partner_happy, staking_contract.resolution_clause,  staking_contract.amount_staked);\r\n  }\r\n\r\n  /*\r\n  function sellTokens(uint _amount) public {\r\n    // User can't sell more tokens than they have\r\n    require(token.balanceOf(msg.sender) >= _amount);\r\n\r\n    // Calculate the amount of Ether to redeem\r\n    uint etherAmount = _amount / rate;\r\n\r\n    // Require that EthSwap has enough Ether\r\n    require(address(this).balance >= etherAmount);\r\n\r\n    // Perform sale\r\n    token.transferFrom(msg.sender, address(this), _amount);\r\n    msg.sender.transfer(etherAmount);\r\n\r\n    // Emit an event\r\n    emit TokensSold(msg.sender, address(token), _amount, rate);\r\n  }\r\n  */\r\n}\r\n",
  "sourcePath": "C:\\Users\\mathi\\Documents\\Blockchain code\\Dapp\\Staking_arrangment\\src\\contracts\\StakEth.sol",
  "compiler": {
    "name": "solc",
    "version": "0.5.16+commit.9c3226ce.Emscripten.clang"
  },
  "schemaVersion": "3.0.23",
  "updatedAt": "2021-01-12T14:25:08.761Z",
  "networkType": "ethereum",
  "devdoc": {
    "methods": {}
  },
  "userdoc": {
    "methods": {}
  }
}